S010000054657374323331332E73726563AB
S113000012C02AC029C028C0F3C026C025C024C0FD
S113001023C022C021C020C01FC01EC01DC01CC0E0
S11300201BC01AC019C011241FBECFEDCDBF20E0E4
S1130030A4E6B0E001C01D92A836B207E1F710E0D3
S1130040A0E6B0E0E6ECF4E002C005900D92A43620
S1130050B107D9F768D135C2D3CF8FB980E48EB94F
S1130060769904C08BE18DB9769BFDCF8FB108954D
S1130070BA9A899A919A8A98929A0895BC9ABE9A41
S1130080BF9ABD98C59AC49AC49883E5E6DF80E018
S1130090E4DF80E0E2DF80E0E0DFC49AE9DF109291
S11300A06500109264000895EF92FF920F931F93DE
S11300B0CF93DF93CDB7DD27C650CDBF082F10E017
S11300C00F5F1F4F000F111F000F111FC49AC49818
S11300D081EDC3DF80E0C1DF812F8170BEDF802F1F
S11300E0BCDF8E010F5F1F4F7E0147E0E40EF11C61
S11300F085E5B3DFF80181938F01EE15FF05C1F7A4
S1130100C49A998180E02A818C01020F111D3B81E0
S113011020E08C81280F311DF901E051F2403D812E
S113012020E08E81A901480F511DCA01801B910B4B
S113013068E071E0FED08E0F9F1F9093650080935E
S113014064000F5F1F4FC49AC49888EE86DFC8010D
S1130150880F892F881F990B91958F707EDF802FD0
S1130160880F7BDF80E079DF80E077DF80E075DF78
S113017080E073DF80E071DF80B7836080BF80B789
S1130180877F80BF80B7806880BF80B78F7B80BF48
S113019081E083BF16BE1092670010926600F89447
S11301A08EB5877E88608EBD8FB58C7F8FBD8EB5F2
S11301B0887F81608EBD88EE93E09BBD8ABD89B740
S11301C0806489BF7894CA5FCDBFDF91CF911F91BE
S11301D00F91FF90EF900895C49A89B78F7B89BFE0
S11301E08EB58E7F8EBD83B78E7F83BFC2980895F0
S11301F01F920F920FB60F9211242F933F934F9398
S11302005F936F937F938F939F93AF93BF93EF937A
S1130210FF938091640090916500892B11F4DCDFD9
S113022015C08091640090916500019790936500DA
S113023080936400809166009091670086BF87E395
S11302400CDF90E09093670080936600FF91EF913C
S1130250BF91AF919F918F917F916F915F914F91DA
S11302603F912F910F900FBE0F901F901895809182
S1130270640090916500892BD1F7089515DFF7DFAD
S11302802FEF80E792E0215080409040E1F700C0DA
S113029000000895882311F0919A08959198089583
S11302A00F931F93CF93DF93182F2FEF80E792E0E4
S11302B0215080409040E1F700C00000123000F56A
S11302C0DFEF2BC08D2F8370E9F481E0E3DF8FE350
S11302D09CE90197F1F700C0000080E0DBDF12C069
S11302E0829B1BC089D08FE19EE40197F1F700C087
S11302F00000C150A9F7DF5FD113E4CFDFEF0DC0D9
S1130300D1E009E0829B09C077D08FE19EE4019798
S1130310F1F700C00000C02FE3CF8D2FDF91CF9104
S11303201F910F910895AADE81E0BADF81E0A6DF74
S1130330FDCF5527002480FF02C0060E571F660F0D
S1130340771F6115710521F096958795009799F7A8
S1130350952F802D08958F929F92AF92BF92CF9246
S1130360DF92EF92FF92CF93DF93EC016881798162
S11303708A819B81611571058105910521F464E2EF
S113038079ED8BE597E02DE133EF41E050E05CD06F
S113039049015A0127EA31E440E050E03CD06B01C6
S11303A07C012CEE34EF4FEF5FEFC501B40133D085
S11303B0AB01BC01C40ED51EE61EF71EF7FE06C037
S11303C081E0C81AD108E10880E8F80AC882D98215
S11303D0EA82FB82E894D7F8EE24FF24C601DF9179
S11303E0CF91FF90EF90DF90CF90BF90AF909F9010
S11303F08F900895B0DF089580E690E0ACDF089513
S1130400A0E0B0E08093600090936100A09362004C
S1130410B09363000895FF27EE27BB27AA2760FF48
S113042004C0A20FB31FE41FF51F220F331F441F84
S1130430551F969587957795679589F70097760761
S113044071F7CF01BD010895052E97FB16F40094B2
S113045006D057FD0CD013D007FC09D07EF490953C
S11304608095709561957F4F8F4F9F4F089550955C
S11304704095309521953F4F4F4F5F4F0895A1E22E
S11304801A2EAA1BBB1BFD010DC0AA1FBB1FEE1F0A
S1130490FF1FA217B307E407F50720F0A21BB30B55
S11304A0E40BF50B661F771F881F991F1A9469F7D1
S11304B060957095809590959B01AC01BD01CF012D
S10904C00895F894FFCF3B
S10704C6010000002D
S9030000FC
